:020000040800F2
:1000000000500020153300085D3300085D33000800
:100010005D3300085D3300085D3300080000000018
:100020000000000000000000000000005D33000838
:100030005D330008000000005D33000889300008CF
:100040005D3300085D3300085D3300085D33000850
:100050005D3300085D3300085D3300085D33000840
:100060005D3300085D3300085D33000899300008F7
:100070005D3300085D3300085D3300085D33000820
:10008000AD300008C1300008D53000085D330008ED
:100090005D3300085D3300085D3300085D33000800
:1000A0005D3300085D3300085D3300085D330008F0
:1000B0005D3300085D3300085D3300085D330008E0
:1000C0005D3300085D3300085D3300085D330008D0
:1000D0005D3300085D330008E93000085D33000837
:1000E000FD3000085D3300085D33000800000000AB
:1000F0000000000000000000000000000000000000
:0C01000000000000000000005FF808F1A3
:10010C0010B5054C237833B9044B13B10448AFF345
:10011C0000800123237010BD70000020000000003F
:10012C002444000808B5034B1BB103490348AFF343
:10013C00008008BD0000000074000020244400086A
:10014C0080B500AF084A084B1B6843F010031360DE
:10015C00032000F07DFE002000F008F802F03CFFC8
:10016C000023184680BD00BF0020024080B582B03D
:10017C0000AF7860124B1A68124B1B7819464FF47B
:10018C007A73B3FBF1F3B2FBF3F3184600F095FE70
:10019C000346002B01D001230EE07B680F2B0AD8FD
:1001AC00002279684FF0FF3000F05DFE064A7B6854
:1001BC001360002300E0012318460837BD4680BDBC
:1001CC0008000020040000200000002080B400AFD4
:1001DC00054B1B781A46054B1B681344034A1360E6
:1001EC0000BFBD4680BC7047040000209800002072
:1001FC0080B400AF024B1B681846BD4680BC7047EC
:10020C009800002080B584B000AF7860FFF7F0FF55
:10021C00B8607B68FB60FB68B3F1FF3F05D0094B0E
:10022C001B781A46FB681344FB6000BFFFF7E0FF26
:10023C000246BB68D21AFB689A42F7D300BF10374C
:10024C00BD4680BD0400002080B586B000AF78604C
:10025C000023FB7500233B610023BB600023FB6084
:10026C007B68002B01D10123BEE07B689B68002BCF
:10027C007B689B6A002B09D17B680022DA627B6861
:10028C00002283F82420786802F074FC786800F06F
:10029C006FFC0346FB757B689B6A03F01003002B15
:1002AC0040F09980FB7D002B40F095807B689B6A29
:1002BC0023F4885323F0020343F002027B689A6212
:1002CC007B685A687B68DB691A437B68DB685B0078
:1002DC001343BA681343BB607B689B68B3F5807F9C
:1002EC0003D07B689B68012B02D14FF4807300E034
:1002FC0000233A6913433B617B685B69012B19D17D
:10030C007B68DB68002B09D17B689B69013B5A0336
:10031C003B69134343F400633B610BE07B689B6ACE
:10032C0043F020027B689A627B68DB6A43F001022F
:10033C007B68DA627B681B687A681268526822F400
:10034C0069413A690A435A607B681A687B681B6882
:10035C009968274B0B40B9680B4393607B689B688B
:10036C00B3F5807F03D07B689B68012B04D17B683D
:10037C001B69013B1B05FB607B681B687A68126874
:10038C00D26A22F47001FA680A43DA627B681B684D
:10039C009A68184B1340BA6893420BD17B680022C1
:1003AC00DA627B689B6A23F0030343F001027B68EB
:1003BC009A6218E07B689B6A23F0120343F01002E8
:1003CC007B689A627B68DB6A43F001027B68DA62C5
:1003DC000123FB7507E07B689B6A43F010027B6886
:1003EC009A620123FB75FB7D18461837BD4680BD0C
:1003FC00FDF7E1FFFE0E1FFF80B584B000AF786003
:10040C000023FB737B6893F82430012B01D102236A
:10041C00A0E07B68012283F82420786800F056FB6A
:10042C000346FB73FB7B002B40F08F807B689B6A41
:10043C0023F4706323F0010343F480727B689A62A7
:10044C007B681B68454A934205D1454B5B6803F4B6
:10045C007023002B15D17B689B6A23F480127B6878
:10046C009A627B681B685B6803F48063002B26D060
:10047C007B689B6A23F4405343F480527B689A62F6
:10048C001DE07B689B6A43F480127B689A627B68F0
:10049C001B68334A934204D07B681B682F4A9342F3
:1004AC000DD12F4B5B6803F48063002B07D07B6866
:1004BC009B6A23F4405343F480527B689A627B68B6
:1004CC009B6A03F48053002B06D07B68DB6A23F015
:1004DC0006027B68DA6202E07B680022DA627B68E3
:1004EC00002283F824207B681B686FF002021A60DC
:1004FC007B681B687A681268526842F020025A6066
:10050C007B681B689B6803F46023B3F5602F13D1E1
:10051C007B681B68114A934205D1114B5B6803F44D
:10052C007023002B08D17B681B687A68126892686C
:10053C0042F4A0029A600CE07B681B687A6812682F
:10054C00926842F480129A6003E07B68002283F880
:10055C002420FB7B18461037BD4680BD0028014087
:10056C000024014080B586B000AFF860B9607A60B5
:10057C000023FB75FB681B68644A934204D0FB683C
:10058C001B68634A934206D1604B5B6803F470238B
:10059C00002B40F0B380FB6893F82430012B01D181
:1005AC000223AEE0FB68012283F82420F86800F0F7
:1005BC008DFA0346FB75FB7D002B40F09A80FB689F
:1005CC009B6A23F4706323F0010343F48072FB688D
:1005DC009A62FB681B684E4A934205D14B4B5B6891
:1005EC0003F47023002B15D1FB689B6A23F4801253
:1005FC00FB689A62FB681B685B6803F48063002BE2
:10060C0026D0FB689B6A23F4405343F48052FB686A
:10061C009A621DE0FB689B6A43F48012FB689A6245
:10062C00FB681B68394A934204D0FB681B68384A44
:10063C0093420DD1354B5B6803F48063002B07D0DC
:10064C00FB689B6A23F4405343F48052FB689A6224
:10065C00FB689B6A03F48053002B06D0FB68DB6AB3
:10066C0023F00602FB68DA6202E0FB680022DA6221
:10067C00FB68002283F82420FB681B6A254A9A62D7
:10068C00FB681B6A244ADA62FB681B6A234A1A63FA
:10069C00FB681B686FF002021A60FB681B68FA6843
:1006AC001268926842F480729A60FB68186AFB6860
:1006BC001B684C331946BA687B6800F099FCFB68E0
:1006CC001B689B6803F46023B3F5602F08D1FB68AB
:1006DC001B68FA681268926842F4A0029A600FE0F4
:1006EC00FB681B68FA681268926842F480129A6080
:1006FC0006E0FB68002283F8242001E00123FB754F
:10070C00FB7D18461837BD4680BD00BF0024014054
:10071C0000280140F10B00086D0C0008890C000842
:10072C0080B582B000AF78607B681B685B6803F0B3
:10073C002003202B40D17B681B681B6803F002034D
:10074C00022B39D17B689B6A03F01003002B05D177
:10075C007B689B6A43F400727B689A627B681B68B7
:10076C009B6803F46023B3F5602F1DD17B68DB68B5
:10077C00002B19D17B681B687A681268526822F0CA
:10078C0020025A607B689B6A23F480727B689A62B1
:10079C007B689B6A03F48053002B05D17B689B6AB2
:1007AC0043F001027B689A62786802F0F1FA7B6888
:1007BC001B686FF012021A607B681B685B6803F0A1
:1007CC008003802B4FD17B681B681B6803F00403EC
:1007DC00042B48D17B689B6A03F01003002B05D1D6
:1007EC007B689B6A43F400527B689A627B681B6847
:1007FC009B6803F4E043B3F5E04F12D07B681B68B1
:10080C005B6803F48063002B25D17B681B689B68B5
:10081C0003F46023B3F5602F1DD17B68DB68002BDC
:10082C0019D17B681B687A681268526822F08002C2
:10083C005A607B689B6A23F480527B689A627B685F
:10084C009B6A03F48073002B05D17B689B6A43F091
:10085C0001027B689A62786800F02AFA7B681B6850
:10086C006FF00C021A607B681B685B6803F0400336
:10087C00402B14D17B681B681B6803F00103012B10
:10088C000DD17B689B6A43F480327B689A627868EE
:10089C0000F012F87B681B686FF001021A6000BF51
:1008AC000837BD4680BD80B483B000AF786000BF10
:1008BC000C37BD4680BC704780B483B000AF786005
:1008CC0000BF0C37BD4680BC704780B483B000AF0E
:1008DC00786000BF0C37BD4680BC704790B484B0C4
:1008EC0000AF786039600023FB730023BB607B682A
:1008FC0093F82430012B01D10223DCE07B68012228
:10090C0083F824203B685B68062B1CD87B6819682D
:10091C007B681B68586B3B685A6813469B001344F2
:10092C00053B1F2202FA03F3DB4318403B681C68AB
:10093C003B685A6813469B001344053B04FA03F3C7
:10094C0003434B633CE03B685B680C2B1CD87B6817
:10095C0019687B681B68186B3B685A6813469B00C8
:10096C001344233B1F2202FA03F3DB4318403B687A
:10097C001C683B685A6813469B001344233B04FADB
:10098C0003F303430B631BE07B6819687B681B68EC
:10099C00D86A3B685A6813469B001344413B1F229C
:1009AC0002FA03F3DB4318403B681C683B685A6847
:1009BC0013469B001344413B04FA03F30343CB62FD
:1009CC003B681B68092B1CD97B6819687B681B6802
:1009DC00D8683B681A6813465B0013441E3B072219
:1009EC0002FA03F3DB4318403B689C683B681A68C7
:1009FC0013465B0013441E3B04FA03F30343CB6022
:100A0C0019E07B6819687B681B6818693B681A6871
:100A1C0013465B001344072202FA03F3DB4318402E
:100A2C003B689C683B681A6813465B00134404FAE5
:100A3C0003F303430B613B681B68102B03D03B682B
:100A4C001B68112B32D17B681B681D4A934225D140
:100A5C007B681B689B6803F40003002B26D17B6822
:100A6C001B687A681268926842F400029A603B68CC
:100A7C001B68102B1AD1134B1B68134AA2FB0323C0
:100A8C009A0C13469B0013445B00BB6002E0BB68EE
:100A9C00013BBB60BB68002BF9D107E07B689B6A0C
:100AAC0043F020027B689A620123FB737B6800226F
:100ABC0083F82420FB7B18461037BD4690BC70474A
:100ACC00002401400800002083DE1B4380B584B065
:100ADC0000AF78600023FB600023BB607B681B6861
:100AEC009B6803F00103012B39D07B681B687A6883
:100AFC001268926842F001029A601B4B1B681B4AF9
:100B0C00A2FB03239B0CBB6002E0BB68013BBB60F8
:100B1C00BB68002BF9D1FFF76BFBF86018E0FFF70F
:100B2C0067FB0246FB68D31A022B11D97B689B6AC0
:100B3C0043F010027B689A627B68DB6A43F0010227
:100B4C007B68DA627B68002283F82420012307E0AB
:100B5C007B681B689B6803F00103012BDFD100232A
:100B6C0018461037BD4680BD0800002083DE1B43AD
:100B7C0080B584B000AF78600023FB607B681B6895
:100B8C009B6803F00103012B27D17B681B687A68F3
:100B9C001268926822F001029A60FFF729FBF86054
:100BAC0014E0FFF725FB0246FB68D31A022B0DD984
:100BBC007B689B6A43F010027B689A627B68DB6AF5
:100BCC0043F001027B68DA62012307E07B681B6853
:100BDC009B6803F00103012BE3D000231846103768
:100BEC00BD4680BD80B584B000AF78607B685B6A21
:100BFC00FB60FB689B6A03F05003002B27D1FB685A
:100C0C009B6A43F40072FB689A62FB681B689B68E2
:100C1C0003F46023B3F5602F15D1FB68DB68002B60
:100C2C0011D1FB689B6A23F48072FB689A62FB68A3
:100C3C009B6A03F48053002B05D1FB689B6A43F03D
:100C4C000102FB689A62F86802F0A2F804E0FB6803
:100C5C001B6A1B6B7868984700BF1037BD4680BD78
:100C6C0080B584B000AF78607B685B6AFB60F86825
:100C7C00FFF719FE00BF1037BD4680BD80B584B0AC
:100C8C0000AF78607B685B6AFB60FB689B6A43F033
:100C9C004002FB689A62FB68DB6A43F00402FB6863
:100CAC00DA62F868FFF711FE00BF1037BD4680BD51
:100CBC0080B483B000AF786000BF0C37BD4680BCF9
:100CCC007047000080B485B000AF78607B6803F09B
:100CDC000703FB600C4BDB68BB60BA684FF6FF0385
:100CEC001340BB60FB681A02BB68134343F0BF633D
:100CFC0043F40033BB60044ABB68D36000BF1437B5
:100D0C00BD4680BC704700BF00ED00E080B400AF72
:100D1C00044BDB681B0A03F007031846BD4680BC76
:100D2C00704700BF00ED00E080B483B000AF034615
:100D3C00FB71084997F907305B09FA7902F01F0239
:100D4C00012000FA02F241F8232000BF0C37BD4607
:100D5C0080BC704700E100E080B483B000AF034674
:100D6C003960FB7197F90730002B0BDA0D49FB79D1
:100D7C0003F00F03043B3A68D2B21201D2B20B4417
:100D8C001A7609E0084997F907303A68D2B212018D
:100D9C00D2B20B4483F8002300BF0C37BD4680BC95
:100DAC00704700BF00ED00E000E100E080B489B0C6
:100DBC0000AFF860B9607A60FB6803F00703FB6171
:100DCC00FB69C3F10703042B28BF0423BB61FB6938
:100DDC000433062B02D9FB69033B00E000237B6143
:100DEC000122BB6902FA03F35A1EBB681A407B69E5
:100DFC009A4001217B6901FA03F3591E7B680B4071
:100E0C00134318462437BD4680BC704780B582B06A
:100E1C0000AF78607B68013BB3F1807F01D3012385
:100E2C000FE00A4A7B68013B53600F214FF0FF3003
:100E3C00FFF792FF054B00229A60044B07221A60C1
:100E4C00002318460837BD4680BD00BF10E000E007
:100E5C0080B582B000AF78607868FFF733FF00BFD1
:100E6C000837BD4680BD80B586B000AF0346B9607B
:100E7C007A60FB7300237B61FFF748FF78617A6827
:100E8C00B9687869FFF792FF024697F90F3011465F
:100E9C001846FFF761FF00BF1837BD4680BD80B50F
:100EAC0082B000AF0346FB7197F907301846FFF785
:100EBC003BFF00BF0837BD4680BD80B582B000AF98
:100ECC0078607868FFF7A2FF034618460837BD46DE
:100EDC0080BD000080B483B000AF78607B68042BC9
:100EEC0006D1094A084B1B6843F00403136005E064
:100EFC00054A054B1B6823F00403136000BF0C3735
:100F0C00BD4680BC704700BF10E000E080B500AF6C
:100F1C0000F002F800BF80BD80B400AF00BFBD463A
:100F2C0080BC704780B485B000AF78600023FB6054
:100F3C007B68002B01D101234FE07B681B681A46AC
:100F4C00284B1344284AA2FB03231B099A007B68F5
:100F5C001A647B68254ADA637B68022283F82120B5
:100F6C007B681B681B68FB60FB6823F47F5323F0D2
:100F7C003003FB607B685A687B689B681A437B680C
:100F8C00DB681A437B681B691A437B685B691A43ED
:100F9C007B689B691A437B68DB691343FA681343CC
:100FAC00FB607B681B68FA681A607B6800229A6297
:100FBC007B680022DA627B6800221A637B6800225D
:100FCC005A637B6800229A637B68012283F8212094
:100FDC007B68002283F82020002318461437BD4676
:100FEC0080BC7047F8FFFDBFCDCCCCCC00000240DC
:100FFC0080B586B000AFF860B9607A603B600023C2
:10100C00FB75FB6893F82030012B01D102234AE0D9
:10101C00FB68012283F82020FB6893F82130012B18
:10102C003AD1FB68022283F82120FB6800229A63E4
:10103C00FB681B68FA681268126822F001021A60D9
:10104C003B687A68B968F86800F0C0F9FB68DB6A3D
:10105C00002B08D0FB681B68FA681268126842F013
:10106C000E021A600FE0FB681B68FA6812681268BF
:10107C0022F004021A60FB681B68FA681268126896
:10108C0042F00A021A60FB681B68FA681268126860
:10109C0042F001021A6005E0FB68002283F8202070
:1010AC000223FB75FB7D18461837BD4680BD00003A
:1010BC0080B584B000AF78600023FB737B6893F835
:1010CC002130022B05D07B6804229A630123FB7329
:1010DC0057E07B681B687A681268126822F00E026F
:1010EC001A607B681B687A681268126822F0010229
:1010FC001A60264A7B681B681946254B99422ED0EC
:10110C007B681B681946234B994226D07B681B6869
:10111C001946214B99421DD07B681B6819461F4B01
:10112C00994214D07B681B6819461D4B99420BD011
:10113C007B681B6819461B4B994202D14FF48013F4
:10114C000EE04FF080730BE04FF4803308E04FF467
:10115C00805305E04FF4807302E0102300E001237C
:10116C0053607B68012283F821207B68002283F87E
:10117C0020207B685B6B002B03D07B685B6B7868F3
:10118C009847FB7B18461037BD4680BD00000240D7
:10119C00080002401C0002403000024044000240A3
:1011AC00580002406C00024080B584B000AF7860FB
:1011BC007B68DB6B1B68FB607B681B681B68BB6018
:1011CC007B681B6C04229A40FB681340002B55D0A3
:1011DC00BB6803F00403002B50D07B681B681B68B2
:1011EC0003F02003002B07D17B681B687A68126818
:1011FC00126822F004021A606D4A7B681B6819465B
:10120C006C4B99422ED07B681B6819466A4B9942ED
:10121C0026D07B681B681946684B99421DD07B68A9
:10122C001B681946664B994214D07B681B6819469B
:10123C00644B99420BD07B681B681946624B9942F0
:10124C0002D14FF480030EE04FF080630BE04FF4BB
:10125C00802308E04FF4804305E04FF4806302E004
:10126C00402300E0042353607B68DB6A002B00F012
:10127C009A807B68DB6A7868984794E07B681B6C83
:10128C0002229A40FB681340002B5CD0BB6803F031
:10129C000203002B57D07B681B681B6803F02003EC
:1012AC00002B0BD17B681B687A681268126822F0DD
:1012BC000A021A607B68012283F821203C4A7B6871
:1012CC001B6819463B4B99422ED07B681B6819460C
:1012DC00394B994226D07B681B681946374B99428B
:1012EC001DD07B681B681946354B994214D07B681E
:1012FC001B681946334B99420BD07B681B68194607
:10130C00314B994202D14FF400130EE04FF00073B1
:10131C000BE04FF4003308E04FF4005305E04FF4BA
:10132C00007302E0202300E0022353607B6800225C
:10133C0083F820207B689B6A002B34D07B689B6AE7
:10134C00786898472FE07B681B6C08229A40FB68F2
:10135C001340002B28D0BB6803F00803002B23D0CC
:10136C007B681B687A681268126822F00E021A6099
:10137C007B68DB6B7A68126C012101FA02F25A600D
:10138C007B6801229A637B68012283F821207B68A9
:10139C00002283F820207B681B6B002B04D07B6819
:1013AC001B6B7868984700BF00BF1037BD4680BDE7
:1013BC0000000240080002401C00024030000240C5
:1013CC0044000240580002406C00024080B485B0DA
:1013DC0000AFF860B9607A603B60FB68DB6BFA6861
:1013EC00126C012101FA02F25A60FB681B683A6820
:1013FC005A60FB685B68102B08D1FB681B687A6825
:10140C009A60FB681B68BA68DA6007E0FB681B68C7
:10141C00BA689A60FB681B687A68DA6000BF143798
:10142C00BD4680BC7047000080B48BB000AF7860C4
:10143C0039600023FB610023BB6100237B61002327
:10144C003B6200233B6100237B6227E101227B6A24
:10145C0002FA03F3FB613B681A68FB691340BB613A
:10146C00BA69FB699A4240F016813B685B68122BA3
:10147C0034D0122B0DD8022B2BD0022B04D8002BDE
:10148C0031D0012B1CD048E0032B43D0112B1BD0A7
:10149C0043E0874A934226D0854A934206D8854A30
:1014AC00934220D0844A93421DD036E0834A934223
:1014BC0019D0834A934216D0824A934213D02CE01F
:1014CC003B68DB683B6228E03B68DB6804333B62CB
:1014DC0023E03B68DB6808333B621EE03B68DB685B
:1014EC000C333B6219E03B689B68002B02D1042350
:1014FC003B6212E03B689B68012B05D108233B62E1
:10150C007B68FA691A6108E008233B627B68FA6918
:10151C005A6102E000233B6200BFBB69FF2B01D87C
:10152C007B6801E07B680433FB60BB69FF2B02D84E
:10153C007B6A9B0002E07B6A083B9B003B61FB687B
:10154C001A680F213B6901FA03F3DB431A40396A2D
:10155C003B6901FA03F31A43FB681A603B685B684A
:10156C0003F08053002B00F09680574A564B9B6932
:10157C0043F001039361544B9B6903F00103BB607F
:10158C00BB68524A7B6A9B08023352F823307B615A
:10159C007B6A03F003039B000F2202FA03F3DB4385
:1015AC007A6913407B617B68494A934213D07B680C
:1015BC00484A93420DD07B68474A934207D07B68D8
:1015CC00464A934201D1032306E0042304E002239C
:1015DC0002E0012300E000237A6A02F00302920089
:1015EC0093407A6913437B6138497B6A9B080233C9
:1015FC007A6941F823203B685B6803F48033002B45
:10160C0006D03749364B1A68BB6913430B6006E0AA
:10161C003349334B1A68BB69DB4313400B603B689F
:10162C005B6803F40033002B06D02D492C4B5A6811
:10163C00BB6913434B6006E02949294B5A68BB69C7
:10164C00DB4313404B603B685B6803F48013002B57
:10165C0006D02349224B9A68BB6913438B6006E082
:10166C001F491F4B9A68BB69DB4313408B603B6877
:10167C005B6803F40013002B06D01949184BDA6889
:10168C00BB691343CB6006E01549154BDA68BB699F
:10169C00DB431340CB607B6A01337B627B6A0F2B8D
:1016AC007FF6D4AE00BF2C37BD4680BC704700BF60
:1016BC000000211000001110000012100000311069
:1016CC000000321000002210001002400000014007
:1016DC0000080140000C01400010014000140140C2
:1016EC000004014080B483B000AF78600B467B806F
:1016FC0013467B707B78002B03D07A887B681A6149
:10170C0003E07B881A047B681A6100BF0C37BD4666
:10171C0080BC704780B582B000AF0346FB80084B9D
:10172C005A69FB881340002B06D0054AFB8853618D
:10173C00FB88184600F006F800BF0837BD4680BD90
:10174C000004014080B483B000AF0346FB8000BFAF
:10175C000C37BD4680BC704780B586B000AF786052
:10176C0000233B617B681B6803F00103002B00F036
:10177C008780924B5B6803F00C03042B0CD08F4BCF
:10178C005B6803F00C03082B12D18C4B5B6803F4E1
:10179C008033B3F5803F0BD1884B1B6803F40033C7
:1017AC00002B6CD07B685B68002B68D101232DE289
:1017BC007B685B68B3F5803F06D1804A7F4B1B6822
:1017CC0043F4803313602EE07B685B68002B0CD1F4
:1017DC007A4A7A4B1B6823F480331360774A774B31
:1017EC001B6823F4802313601DE07B685B68B3F5F2
:1017FC00A02F0CD1714A714B1B6843F480231360EA
:10180C006E4A6E4B1B6843F4803313600BE06B4ADB
:10181C006A4B1B6823F480331360684A674B1B6860
:10182C0023F4802313607B685B68002B13D0FEF7D6
:10183C00DFFC386108E0FEF7DBFC02463B69D31A9B
:10184C00642B01D90323E1E15C4B1B6803F40033E7
:10185C00002BF0D014E0FEF7CBFC386108E0FEF76B
:10186C00C7FC02463B69D31A642B01D90323CDE193
:10187C00524B1B6803F40033002BF0D100E000BF87
:10188C007B681B6803F00203002B63D04B4B5B6837
:10189C0003F00C03002B0BD0484B5B6803F00C03DC
:1018AC00082B1CD1454B5B6803F48033002B16D1FD
:1018BC00424B1B6803F00203002B05D07B681B69AD
:1018CC00012B01D00123A1E13C493C4B1B6823F0C7
:1018DC00F8027B685B69DB0013430B603AE07B68C2
:1018EC001B69002B20D0364B01221A60FEF780FCBE
:1018FC00386108E0FEF77CFC02463B69D31A022BE8
:10190C0001D9032382E12D4B1B6803F00203002B4A
:10191C00F0D02A49294B1B6823F0F8027B685B69DD
:10192C00DB0013430B6015E0254B00221A60FEF719
:10193C005FFC386108E0FEF75BFC02463B69D31A9A
:10194C00022B01D9032361E11C4B1B6803F002033A
:10195C00002BF0D17B681B6803F00803002B39D0F7
:10196C007B689B69002B19D0164B01221A60FEF77D
:10197C003FFC386108E0FEF73BFC02463B69D31A9A
:10198C00022B01D9032341E10C4B5B6A03F00203E8
:10199C00002BF0D0012000F0CBFA1BE0094B002209
:1019AC001A60FEF725FC38610EE0FEF721FC0246BA
:1019BC003B69D31A022B07D9032327E100100240FD
:1019CC000000424280044242924B5B6A03F00203E5
:1019DC00002BEAD17B681B6803F00403002B00F09A
:1019EC00A6800023FB758B4BDB6903F08053002B27
:1019FC000DD1884A874BDB6943F08053D361854B0B
:101A0C00DB6903F08053FB60FB680123FB75824BA1
:101A1C001B6803F48073002B18D17F4A7E4B1B6824
:101A2C0043F480731360FEF7E3FB386108E0FEF7C4
:101A3C00DFFB02463B69D31A642B01D90323E5E093
:101A4C00754B1B6803F48073002BF0D07B68DB684C
:101A5C00012B06D16F4A6F4B1B6A43F001031362D3
:101A6C002DE07B68DB68002B0CD16A4A694B1B6A42
:101A7C0023F001031362674A664B1B6A23F00403CD
:101A8C0013621CE07B68DB68052B0CD1614A614B4F
:101A9C001B6A43F0040313625E4A5E4B1B6A43F0FD
:101AAC00010313620BE05B4A5A4B1B6A23F00103E0
:101ABC001362584A574B1B6A23F0040313627B686A
:101ACC00DB68002B15D0FEF793FB38610AE0FEF7BC
:101ADC008FFB02463B69D31A41F28832934201D9FB
:101AEC00032393E04B4B1B6A03F00203002BEED055
:101AFC0014E0FEF77DFB38610AE0FEF779FB024645
:101B0C003B69D31A41F28832934201D903237DE019
:101B1C00404B1B6A03F00203002BEED1FB7D012B23
:101B2C0005D13C4A3B4BDB6923F08053D3617B6886
:101B3C00DB69002B69D0374B5B6803F00C03082B77
:101B4C0061D07B68DB69022B46D1344B00221A60D2
:101B5C00FEF74EFB386108E0FEF74AFB02463B6994
:101B6C00D31A022B01D9032350E02A4B1B6803F034
:101B7C000073002BF0D17B681B6AB3F5803F08D152
:101B8C002449244B5B6823F400327B689B68134325
:101B9C004B6020481F4B5B6823F474127B68196AF6
:101BAC007B685B6A0B43134343601C4B01221A6036
:101BBC00FEF71EFB386108E0FEF71AFB02463B6994
:101BCC00D31A022B01D9032320E0124B1B6803F01C
:101BDC000073002BF0D018E0104B00221A60FEF7B7
:101BEC0007FB386108E0FEF703FB02463B69D31A9A
:101BFC00022B01D9032309E0064B1B6803F0007389
:101C0C00002BF0D101E0012300E000231846183727
:101C1C00BD4680BD00100240007000406000424292
:101C2C0080B584B000AF786039600023FB60724BE4
:101C3C001B6803F007023B689A4210D26E496E4B48
:101C4C001B6823F007023B6813430B606A4B1B684D
:101C5C0003F007023B689A4201D00123C8E07B687D
:101C6C001B6803F00203002B08D06449634B5B68CC
:101C7C0023F0F0027B689B6813434B607B681B6806
:101C8C0003F00103002B6AD07B685B68012B07D142
:101C9C005A4B1B6803F40033002B15D10123A7E02A
:101CAC007B685B68022B07D1544B1B6803F00073F5
:101CBC00002B09D101239BE0504B1B6803F002035E
:101CCC00002B01D1012393E04C494C4B5B6823F072
:101CDC0003027B685B6813434B60FEF789FAF8607C
:101CEC007B685B68012B12D10AE0FEF781FA024691
:101CFC00FB68D31A41F28832934201D9032377E06F
:101D0C003E4B5B6803F00C03042BEED127E07B68A1
:101D1C005B68022B1DD10AE0FEF76AFA0246FB68EB
:101D2C00D31A41F28832934201D9032360E0334B3A
:101D3C005B6803F00C03082BEED110E0FEF758FAA9
:101D4C000246FB68D31A41F28832934201D903232D
:101D5C004EE02A4B5B6803F00C03002BEED1264BB4
:101D6C001B6803F007023B689A4210D92249224BA8
:101D7C001B6823F007023B6813430B601E4B1B6868
:101D8C0003F007023B689A4201D0012330E07B68E4
:101D9C001B6803F00403002B08D01849174B5B6831
:101DAC0023F4E0627B68DB6813434B607B681B6841
:101DBC0003F00803002B09D01049104B5B6823F487
:101DCC0060527B681B69DB0013434B6000F01CF80E
:101DDC0001460A4B5B681B0903F00F03084AD35CEE
:101DEC0021FA03F3074A13600020FEF7BFF9002322
:101DFC0018461037BD4680BD00200240001002403E
:101E0C00A84400080800002090B48AB000AF2A4B08
:101E1C003C1D0FCB84E80F00284B1B883B80002314
:101E2C00FB610023BB6100237B6200237B610023E9
:101E3C003B62234B5B68FB61FB6903F00C03042BD7
:101E4C0002D0082B03D02DE01E4B3B622DE0FB692A
:101E5C009B0C03F00F0307F12802134413F8243CE6
:101E6C007B61FB6903F48033002B13D0144B5B684C
:101E7C005B0C03F0010307F12802134413F8283C10
:101E8C00BB617B690F4A02FB03F2BB69B2FBF3F344
:101E9C007B6204E07B690C4A02FB03F37B627B6A86
:101EAC003B6202E0074B3B6200BF3B6A1846283797
:101EBC00BD4690BC704700BF3C4400084C44000831
:101ECC000010024000127A0000093D0080B400AFFF
:101EDC00024B1B681846BD4680BC704708000020AA
:101EEC0080B500AFFFF7F2FF0146054B5B681B0A9C
:101EFC0003F00703034AD35C21FA03F3184680BDB1
:101F0C0000100240B844000880B500AFFFF7DEFFB8
:101F1C000146054B5B68DB0A03F00703034AD35CFD
:101F2C0021FA03F3184680BD00100240B8440008A3
:101F3C0080B485B000AF78600A4B1B680A4AA2FBDC
:101F4C0003235B0A7A6802FB03F3FB6000BFFB68A8
:101F5C005A1EFA60002BF9D100BF1437BD4680BC65
:101F6C00704700BF08000020D34D621080B586B0CA
:101F7C0000AF786000233B610023FB607B681B682B
:101F8C0003F00103002B7DD00023FB754F4BDB6965
:101F9C0003F08053002B0DD14C4A4C4BDB6943F0C2
:101FAC008053D361494BDB6903F08053BB60BB6842
:101FBC000123FB75464B1B6803F48073002B18D16F
:101FCC00434A434B1B6843F480731360FEF710F9CC
:101FDC00386108E0FEF70CF902463B69D31A642B12
:101FEC0001D903236DE03A4B1B6803F48073002B7B
:101FFC00F0D0364B1B6A03F44073FB60FB68002B7C
:10200C002ED07B685B6803F44072FB689A4227D041
:10201C002E4B1B6A23F44073FB602E4B01221A607B
:10202C002C4B00221A60294AFB681362FB6803F0F0
:10203C000103002B14D0FEF7DBF838610AE0FEF741
:10204C00D7F802463B69D31A41F28832934201D940
:10205C00032336E01D4B1B6A03F00203002BEED06A
:10206C001A491A4B1B6A23F440727B685B68134352
:10207C000B62FB7D012B05D1144A144BDB6923F059
:10208C008053D3617B681B6803F00203002B08D0DC
:10209C000E490E4B5B6823F440427B689B681343EC
:1020AC004B607B681B6803F01003002B08D00749BA
:1020BC00064B5B6823F480027B68DB6813434B6040
:1020CC00002318461837BD4680BD00BF00100240E3
:1020DC00007000404004424280B582B000AF78608E
:1020EC007B68002B01D101233FE07B6893F83930EA
:1020FC00DBB2002B06D17B68002283F8382078688D
:10210C0001F060F87B68242283F839207B681B6817
:10211C007A681268D26822F40052DA60786800F0AB
:10212C0041FB7B681B687A681268126922F4904242
:10213C001A617B681B687A681268526922F02A025D
:10214C005A617B681B687A681268D26842F4005244
:10215C00DA607B680022DA637B68202283F83920FE
:10216C007B68202283F83A20002318460837BD46A6
:10217C0080BD80B588B002AFF860B9603B60134693
:10218C00FB8000237B61FB6893F83930DBB2202B9A
:10219C0040F08280BB68002B02D0FB88002B01D161
:1021AC0001237AE0FB6893F83830012B01D102232C
:1021BC0073E0FB68012283F83820FB680022DA63A5
:1021CC00FB68212283F83920FEF712F87861FB684E
:1021DC00FA889A84FB68FA88DA8441E0FB68DB8C25
:1021EC009BB2013B9AB2FB68DA84FB689B68B3F53F
:1021FC00805F21D13B6800937B6900228021F868C5
:10220C0000F067F90346002B01D0032345E0BB68BF
:10221C003B61FB681B683A691288C2F308025A607A
:10222C00FB681B69002B03D1BB680233BB6017E052
:10223C00BB680133BB6013E03B6800937B690022F1
:10224C008021F86800F045F90346002B01D00323E8
:10225C0023E0FB681A68BB68591CB9601B78536093
:10226C00FB68DB8C9BB2002BB8D13B6800937B697D
:10227C0000224021F86800F02CF90346002B01D015
:10228C0003230AE0FB68202283F83920FB68002234
:10229C0083F83820002300E0022318461837BD4687
:1022AC0080BD000080B588B000AF78607B681B688B
:1022BC001B68FB617B681B68DB68BB617B681B6808
:1022CC005B697B6100233B610023FB60FB6903F0CE
:1022DC000F033B613B69002B0DD1FB6903F020031D
:1022EC00002B08D0BB6903F02003002B03D07868C7
:1022FC0000F0D6F9CCE03B69002B00F0AB807B6999
:10230C0003F00103002B05D1BB6903F49073002B80
:10231C0000F0A080FB6903F00103002B0AD0BB691D
:10232C0003F48073002B05D07B68DB6B43F0010258
:10233C007B68DA63FB6903F00403002B0AD07B692A
:10234C0003F00103002B05D07B68DB6B43F002022A
:10235C007B68DA63FB6903F00203002B0AD07B690C
:10236C0003F00103002B05D07B68DB6B43F0040208
:10237C007B68DA63FB6903F00803002B0AD07B69E6
:10238C0003F00103002B05D07B68DB6B43F00802E4
:10239C007B68DA637B68DB6B002B78D0FB6903F01E
:1023AC002003002B07D0BB6903F02003002B02D0C5
:1023BC00786800F075F97B681B685B6903F0400373
:1023CC00002B14BF01230023DBB2FB607B68DB6BAB
:1023DC0003F00803002B02D1FB68002B31D0786886
:1023EC0000F0C1F87B681B685B6903F04003002BAD
:1023FC0023D07B681B687A681268526922F040020D
:10240C005A617B685B6B002B13D07B685B6B224A39
:10241C005A637B685B6B1846FEF74AFE0346002B3B
:10242C0016D07B685B6B5B6B7A68526B1046984777
:10243C000EE0786800F044F80AE0786800F040F8A4
:10244C0006E0786800F03CF87B680022DA631EE056
:10245C0000BF1CE0FB6903F08003002B08D0BB69B4
:10246C0003F08003002B03D0786800F0ADF80FE088
:10247C00FB6903F04003002B0AD0BB6903F0400357
:10248C00002B05D0786800F0F3F800BF00E000BF27
:10249C002037BD4680BD00BFAD25000880B483B099
:1024AC0000AF786000BF0C37BD4680BC704780B46D
:1024BC0083B000AF786000BF0C37BD4680BC70475E
:1024CC0080B483B000AF786000BF0C37BD4680BCD1
:1024DC00704780B584B000AFF860B9603B601346BC
:1024EC00FB712CE0BB69B3F1FF3F28D0BB69002B1B
:1024FC0007D0FDF77DFE02463B68D21ABB699A42B3
:10250C001DD9FB681B68FA681268D26822F4D07275
:10251C00DA60FB681B68FA681268526922F00102E3
:10252C005A61FB68202283F83920FB68202283F84B
:10253C003A20FB68002283F8382003230FE0FB6865
:10254C001B681A68BB681A40BB689A420CBF01230F
:10255C000023DBB21A46FB799A42C3D000231846FB
:10256C001037BD4680BD80B483B000AF78607B6807
:10257C001B687A681268D26822F49072DA607B6801
:10258C001B687A681268526922F001025A617B68F2
:10259C00202283F83A2000BF0C37BD4680BC704720
:1025AC0080B584B000AF78607B685B6AFB60FB68C9
:1025BC000022DA85FB680022DA84F868FFF780FFD6
:1025CC0000BF1037BD4680BD80B485B000AF7860C9
:1025DC007B6893F83930DBB2212B43D17B689B6845
:1025EC00B3F5805F19D17B681B6AFB607B681B6845
:1025FC00FA681288C2F308025A607B681B69002BC8
:10260C0005D17B681B6A9A1C7B681A620EE07B689A
:10261C001B6A5A1C7B681A6208E07B681A687B6824
:10262C001B6A581C796808621B7853607B68DB8CCA
:10263C009BB2013B9BB27A681946D184002B0FD117
:10264C007B681B687A681268D26822F08002DA60B4
:10265C007B681B687A681268D26842F04002DA60C4
:10266C00002300E0022318461437BD4680BC704797
:10267C0080B582B000AF78607B681B687A6812689E
:10268C00D26822F04002DA607B68202283F839207D
:10269C007868FFF703FF002318460837BD4680BD56
:1026AC0080B584B000AF78607B6893F83A30DBB2C9
:1026BC00222B71D17B689B68B3F5805F23D17B683B
:1026CC009B6AFB607B681B69002B0ED17B681B68C7
:1026DC005B689BB2C3F308039AB2FB681A807B68F1
:1026EC009B6A9A1C7B689A6229E07B681B685B6812
:1026FC009BB2DBB29AB2FB681A807B689B6A5A1C4D
:10270C007B689A621BE07B681B69002B0AD17B6893
:10271C009B6A591C7A6891627A6812685268D2B2C4
:10272C001A700CE07B689B6A591C7A6891627A6813
:10273C0012685268D2B202F07F02D2B21A707B6871
:10274C00DB8D9BB2013B9BB27A681946D185002B7D
:10275C0020D17B681B687A681268D26822F020024C
:10276C00DA607B681B687A681268D26822F480721F
:10277C00DA607B681B687A681268526922F0010281
:10278C005A617B68202283F83A207868FFF78FFE25
:10279C00002302E0002300E0022318461037BD4658
:1027AC0080BD0000F0B585B000AF78600023FB6001
:1027BC007B681B687A681268126922F440517A6847
:1027CC00D2680A431A617B689A687B681B691A4352
:1027DC007B685B691343FA681343FB607B681A6878
:1027EC007B681B68DB6823F4B05323F00C03F96897
:1027FC000B43D3607B681B687A681268526922F4B9
:10280C0040717A6892690A435A617B681B686F4A07
:10281C0093426BD17B681C68FFF776FB024613462C
:10282C009B0013449A001A447B685B689B00B2FBC4
:10283C00F3F3674AA2FB03235B091D01FFF764FB5B
:10284C00024613469B0013449A001A447B685B684B
:10285C009B00B2FBF3F6FFF757FB024613469B00B7
:10286C0013449A001A447B685B689B00B2FBF3F339
:10287C00574AA2FB03235B09642202FB03F3F31AFE
:10288C001B013233524AA2FB03235B0903F0F00312
:10289C001D44FFF739FB024613469B0013449A0074
:1028AC001A447B685B689B00B2FBF3F6FFF72CFBCA
:1028BC00024613469B0013449A001A447B685B68DB
:1028CC009B00B2FBF3F3424AA2FB03235B09642295
:1028DC0002FB03F3F31A1B0132333D4AA2FB032321
:1028EC005B0903F00F032B44A3606AE07B681C6850
:1028FC00FFF7F6FA024613469B0013449A001A445B
:10290C007B685B689B00B2FBF3F3314AA2FB0323A9
:10291C005B091D01FFF7E4FA024613469B001344C2
:10292C009A001A447B685B689B00B2FBF3F6FFF7D6
:10293C00D7FA024613469B0013449A001A447B684C
:10294C005B689B00B2FBF3F3214AA2FB03235B09F8
:10295C00642202FB03F3F31A1B0132331C4AA2FB61
:10296C0003235B0903F0F0031D44FFF7B9FA024699
:10297C0013469B0013449A001A447B685B689B00C7
:10298C00B2FBF3F6FFF7ACFA024613469B00134476
:10299C009A001A447B685B689B00B2FBF3F30C4A09
:1029AC00A2FB03235B09642202FB03F3F31A1B0152
:1029BC003233074AA2FB03235B0903F00F032B44BA
:1029CC00A36000BF1437BD46F0BD00BF0038014006
:1029DC001F85EB5180B584B000AF634B634A1A601E
:1029EC00614B4FF480729A605F4B0122DA605E4B50
:1029FC0000225A615C4B4FF46022DA615A4B002280
:102A0C005A60594B0A221A615748FDF71DFC0346C0
:102A1C00002B03D04521564800F0D8FA0B237B60DD
:102A2C000123BB600623FB603B1D19464E48FDF796
:102A3C0055FF0346002B03D04F214D4800F0C6FA3A
:102A4C000C237B600223BB603B1D19464648FDF7F7
:102A5C0045FF0346002B03D05821454800F0B6FA39
:102A6C000D237B600323BB603B1D19463E48FDF7DD
:102A7C0035FF0346002B03D061213D4800F0A6FA38
:102A8C000E237B600423BB603B1D19463648FDF7C3
:102A9C0025FF0346002B03D06A21354800F096FA37
:102AAC000F237B600523BB603B1D19462E48FDF7A9
:102ABC0015FF0346002B03D073212D4800F086FA36
:102ACC0006237B600623BB603B1D19462648FDF799
:102ADC0005FF0346002B03D07C21254800F076FA35
:102AEC0007237B600723BB603B1D19461E48FDF77F
:102AFC00F5FE0346002B03D085211D4800F066FA35
:102B0C0008237B600823BB603B1D19461648FDF764
:102B1C00E5FE0346002B03D08E21154800F056FA33
:102B2C0009237B600923BB603B1D19460E48FDF74A
:102B3C00D5FE0346002B03D097210D4800F046FA32
:102B4C000A237B600A23BB603B1D19460648FDF730
:102B5C00C5FE0346002B03D0A021054800F036FA31
:102B6C0000BF1037BD4680BD9C00002000240140F2
:102B7C005044000880B588B000AF78607B681B6853
:102B8C00314A93425BD1314A304B9B6943F4007319
:102B9C0093612E4B9B6903F40073FB60FB683F232E
:102BAC003B6103237B6107F1100319462848FEF7AC
:102BBC003BFCC0233B6103237B6107F110031946E7
:102BCC002448FEF731FC03233B6103237B6107F1AF
:102BDC00100319462048FEF727FC204B204A1A60A8
:102BEC001E4B00225A601D4B00229A601B4B802208
:102BFC00DA601A4B4FF400721A61184B4FF40062F2
:102C0C005A61164B20229A61144B0022DA61134848
:102C1C00FEF788F90346002B03D0D621114800F0AB
:102C2C00D5F97B680D4A1A620C4A7B685362002204
:102C3C0000211220FEF717F91220FEF730F900BF21
:102C4C002037BD4680BD00BF00240140001002406B
:102C5C000010014000080140000C0140CC00002095
:102C6C00080002405044000880B582B000AF144AFE
:102C7C00134B5B6943F001035361114B5B6903F028
:102C8C0001037B607B68002200210B20FEF7EBF830
:102C9C000B20FEF704F9002200211020FEF7E3F8C8
:102CAC001020FEF7FCF8002200211120FEF7DBF8C3
:102CBC001120FEF7F4F800BF0837BD4680BD00BFF9
:102CCC000010024080B588B000AF2D4A2C4B9B6998
:102CDC0043F0100393612A4B9B6903F01003FB60D4
:102CEC00FB68274A264B9B6943F020039361244BD6
:102CFC009B6903F02003BB60BB68214A204B9B6996
:102D0C0043F0040393611E4B9B6903F004037B6047
:102D1C007B681B4A1A4B9B6943F008039361184B61
:102D2C009B6903F008033B603B6800222021154897
:102D3C00FEF7D8FC4FF400533B61134B7B6100232F
:102D4C00BB6107F1100319461048FEF76DFB2023F9
:102D5C003B6101237B610223FB6107F110031946E0
:102D6C000848FEF761FB002200212820FEF77BF8C3
:102D7C002820FEF794F800BF2037BD4680BD00BF69
:102D8C00001002400008014000001110001001402A
:102D9C00F0B587B000AF78606846864605200546DA
:102DAC0005202844013838610520054605202844B3
:102DBC0005464FF00006720142EAD5626901052210
:102DCC00114605220A4411464FF00002540144EA10
:102DDC00D1644B0105231A46052313449B0003338E
:102DEC000733DB08DB00ADEB030D6B4603339B08AD
:102DFC009B00FB607B681B680E4A934214D1002336
:102E0C00FB820AE0FA8AFB8A0B4951F82310FB6813
:102E1C0043F82210FB8A0133FB82FA8A05231946F8
:102E2C0005230B449A42EDDBF54600BF1C37BD462B
:102E3C00F0BD00BF002401401001002080B58EB011
:102E4C0000AFFDF77DF900F05DF8FFF73BFFFFF7F2
:102E5C000BFF00F089F9FFF7BDFD254800F012FBD0
:102E6C0005231A46052313441A4622492248FDF726
:102E7C0079FB2148FDF7C0FA1F48FDF7BDFA07F1B1
:102E8C002803184600F068FBF862FB6A184600F04D
:102E9C0001FB00237B630CE000F024FB02467B6B00
:102EAC009B0007F138010B4443F8382C7B6B013342
:102EBC007B637B6B092BEFDD00233B630DE03B6BEE
:102ECC009B0007F13802134453F8383C19460B4861
:102EDC0000F064FA3B6B01333B633B6B092BEEDD7B
:102EEC00074800F0CFFA0A20FDF78CF9C4E700BFC1
:102EFC0060440008100100209C0000208044000861
:102F0C008444000880B594B000AF0123BB624FF439
:102F1C00A023FB6200233B630123BB6302237B647E
:102F2C004FF48033BB644FF4E013FB6407F12803C8
:102F3C001846FEF711FC0346002B03D0BD21214897
:102F4C0000F044F80F237B610223BB610023FB617B
:102F5C004FF480633B6200237B6207F11403022170
:102F6C001846FEF75DFE0346002B03D0CB21154817
:102F7C0000F02CF802237B604FF40043FB603B1DF8
:102F8C001846FEF7F3FF0346002B03D0D2210D4861
:102F9C0000F01CF8FEF79AFF02460B4BA3FB022332
:102FAC009B091846FDF789FF0420FDF793FF0022CB
:102FBC0000214FF0FF30FDF756FF00BF5037BD46E4
:102FCC0080BD00BF88440008D34D621080B483B02C
:102FDC0000AF78603960FEE780B582B000AF254A5B
:102FEC00244B9B6943F001039361224B9B6903F0D3
:102FFC0001033B603B680320FDF72AFF0022002100
:10300C006FF00B00FDF72FFF002200216FF00A007C
:10301C00FDF729FF002200216FF00900FDF723FFC7
:10302C00002200216FF00400FDF71DFF002200219B
:10303C006FF00300FDF717FF002200216FF0010075
:10304C00FDF711FF002200214FF0FF30FDF70BFFC1
:10305C00094B5B687B607B6823F0E0637B607B687B
:10306C0043F000737B60044A7B68536000BF0837F1
:10307C00BD4680BD001002400000014080B500AF8D
:10308C00FDF7A4F8FDF742FF00BF80BD80B500AF8F
:10309C000248FEF789F800BF80BD00BFCC000020BD
:1030AC0080B500AF0248FEF77FF800BF80BD00BFBF
:1030BC003801002080B500AF0248FEF775F800BF5C
:1030CC0080BD00BF7C01002080B500AF0248FDF739
:1030DC0027FB00BF80BD00BF9C00002080B500AF67
:1030EC000248FFF7DFF800BF80BD00BFC001002021
:1030FC0080B500AF4FF40050FEF70CFB00BF80BD55
:10310C0080B400AF154A154B1B6843F001031360E4
:10311C001249124B5A68124B13404B600F4A0F4B1B
:10312C001B6823F0847323F4803313600B4A0B4B1E
:10313C001B6823F480231360084A084B5B6823F454
:10314C00FE035360054B4FF41F029A60054B4FF082
:10315C0000629A6000BFBD4680BC70470010024000
:10316C000000FFF800ED00E080B500AF124B134AF1
:10317C001A60114B4FF4E1325A600F4B00229A60E7
:10318C000D4B0022DA600C4B00221A610A4B0C2208
:10319C005A61094B00229A61074B0022DA610648FA
:1031AC00FEF79AFF0346002B03D045210448FFF796
:1031BC000DFF00BF80BD00BFC001002000440040D7
:1031CC009844000880B588B000AF78607B681B68B5
:1031DC003B4A93426FD13B4A3A4BDB6943F4003391
:1031EC00D361384BDB6903F40033FB60FB680C23C1
:1031FC003B6102237B610223FB6107F1100319463B
:10320C003148FEF711F9314B314A1A602F4B00222D
:10321C005A602E4B00229A602C4B8022DA602B4B8A
:10322C0000221A61294B00225A61284B20229A61F4
:10323C00264B0022DA612548FDF774FE0346002B6D
:10324C0003D06B212348FFF7C1FE7B681F4A5A63EA
:10325C001E4A7B685362204B204A1A601E4B102278
:10326C005A601D4B00229A601B4B8022DA601A4B6D
:10327C0000221A61184B00225A61174B00229A61E6
:10328C00154B0022DA611448FDF74CFE0346002B67
:10329C0003D07B210F48FFF799FE7B680E4A1A6317
:1032AC000D4A7B685362002200212620FDF7DBFDCE
:1032BC002620FDF7F4FD00BF2037BD4680BD00BFC2
:1032CC00004400400010024000080140380100207A
:1032DC006C000240984400087C01002080000240F1
:1032EC0080B584B000AFF860B9607A607B689AB240
:1032FC003223B9680348FEF73CFF7B681846103749
:10330C00BD4680BDC0010020002103E00B4B5B5883
:10331C00435004310A480B4B42189A42F6D30A4ADE
:10332C0002E0002342F8043B084B9A42F9D3FFF722
:10333C00E7FE00F00FF8FFF781FD704760450008CD
:10334C00000000207000002070000020040200200B
:10335C00FEE7000070B500250C4E0D4CA41BA4100C
:10336C00A54209D101F058F800250A4E0A4CA41BBD
:10337C00A410A54205D170BD56F8253098470135EB
:10338C00EEE756F8253098470135F2E75845000826
:10339C0058450008584500085C4500080FB40A4B16
:1033AC0013B51C6824B1A36913B9204600F09AFA2E
:1033BC0005AB049AA1682046019300F075FC02B09D
:1033CC00BDE8104004B070470C00002070B50E46EC
:1033DC00054618B183690BB900F084FAAB69AC6887
:1033EC0013B9284600F07EFA234B9C4217D16C6827
:1033FC00A3891B071DD52369DBB1013EA36816F811
:10340C00011F013BA360E9B9002B2EDA22460A21E9
:10341C00284600F0B5F8013011D00A2070BD174BCA
:10342C009C4201D1AC68E3E7154B9C4208BFEC68A9
:10343C00DEE72146284600F0F5F80028DDD04FF0F5
:10344C00FF3070BD002B04DAA269934206DB0A2917
:10345C0004D023685A1C22601970CFE722462846F4
:10346C0000F08EF80130C9D1E9E70A2023685A1C14
:10347C002260187070BD00BFE044000800450008D1
:10348C00C0440008024B01461868FFF79FBF00BFFD
:10349C000C00002038B5124B05461C68A36BD3B941
:1034AC00182000F01FFB43F20E33A06303804AF692
:1034BC00CD33438041F2342383804EF26D63C3805D
:1034CC004DF6EC630381052343810B230122838199
:1034DC000023C0E904230022A36B1D615A6138BD8F
:1034EC000C000020194B10B51C68A36BD3B9182025
:1034FC0000F0F8FA43F20E33A06303804AF6CD33A2
:10350C00438041F2342383804EF26D63C3804DF6C9
:10351C00EC630381052343810B2301228381002368
:10352C00C0E90423A16B0A480A694B695043094C52
:10353C0004FB0300A2FB04230132034443F1000308
:10354C00C1E9042323F0004010BD00BF0C00002093
:10355C002DF451582D7F954C13B5084B0446002281
:10356C001868694600F048FA0028BCBF4FF0FF33DA
:10357C000093009804B1206002B010BD0C00002034
:10358C00F8B50E461446054618B183690BB900F020
:10359C00A9F9214B9C422AD16C68A369A360A38929
:1035AC001A072ED5236963B323692068F6B2C01AB3
:1035BC0063693746984204DB2146284600F028F917
:1035CC0028BBA3680130013BA36023685A1C22600E
:1035DC001E706369984204D0A389DB0719D50A2EA3
:1035EC0017D12146284600F013F990B10FE00B4B90
:1035FC009C4201D1AC68D0E7094B9C4208BFEC68F7
:10360C00CBE72146284600F00DF80028CCD04FF02F
:10361C00FF373846F8BD00BFE044000800450008FD
:10362C00C0440008324B70B51D6806460C4625B1E7
:10363C00AB6913B9284600F055F92E4B9C420FD1BB
:10364C006C68B4F90C309AB215072CD4D00611D48E
:10365C000922326043F04003A3814FF0FF3070BD6C
:10366C00254B9C4201D1AC68EBE7244B9C4208BF34
:10367C00EC68E6E7510712D5616B41B104F14403E4
:10368C00994202D0304600F03DFA00236363A389CF
:10369C0023F02403A3810023636023692360A3899F
:1036AC0043F00803A38123694BB9A38903F4207366
:1036BC00B3F5007F03D02146304600F0D3F9A28940
:1036CC0012F001030CD00023A36063695B42A36179
:1036DC00236953B9B4F90C3013F08000BAD170BD22
:1036EC00920758BF6369A360F2E70020F7E700BFB9
:1036FC000C000020E044000800450008C04400080D
:10370C008A892DE9F041054610070C465AD44B68BE
:10371C00002B05DC0B6C002B02DC0020BDE8F081DB
:10372C00E66A002EF9D0002312F480522F682B6029
:10373C0033D0606DA3895A0705D56368C01A636BD3
:10374C000BB1236CC01A00230246E66A216A284694
:10375C00B047431CA38906D129681D294BD82B4A95
:10376C00CA40D60747D5002262602269D90422607C
:10377C0004D5421C01D12B6803B96065616B2F60C5
:10378C000029CAD004F14403994202D0284600F023
:10379C00B9F900206063BDE8F081216A0123284655
:1037AC00B047411CC6D12B68002BC3D01D2B01D0B8
:1037BC00162B01D12F60B0E7A38943F04003A381FE
:1037CC00BDE8F0810F69002FA7D0930718BF002325
:1037DC000E6808BF4B69A6EB07080F608B60B8F149
:1037EC00000F9ADD43463A46216A2846A66AB0473E
:1037FC00002807DCA38943F04003A3814FF0FF307E
:10380C00BDE8F0810744A8EB0008E8E70100402080
:10381C0038B50B6905460C46DBB118B183690BB999
:10382C0000F060F80C4B9C4209D16C68B4F90C3078
:10383C007BB121462846BDE83840FFF761BF074BF6
:10384C009C4201D1AC68F1E7054B9C4208BFEC6887
:10385C00ECE7002038BD00BFE0440008004500083C
:10386C00C0440008014900F0A9B800BF1D38000889
:10387C00002310B504460360436083608181436676
:10388C00C281036143618361194608225C3000F0F8
:10389C0031F9054B24626362044BA362044BE3626F
:1038AC00044B236310BD00BF314200085342000893
:1038BC008B420008AF42000870B568254A1E55437C
:1038CC000E4605F1740100F069F9044640B100217F
:1038DC0080E842000C30A06005F1680200F00AF9A3
:1038EC00204670BD836910B5044633BB8364C36442
:1038FC000365124B124A1B688262984204BF012373
:10390C00836100F01FF86060204600F01BF8A06097
:10391C00204600F017F80022E06004216068FFF7F1
:10392C00A7FF01220921A068FFF7A2FF02221221A2
:10393C00E068FFF79DFF0123A36110BD204500083F
:10394C0071380008F8B51C4B07461E68B36913B9EB
:10395C003046FFF7C7FF4836B4687368013B03D5A0
:10396C00336833B13668F7E7B4F90C506DB168348D
:10397C00F4E704213846FFF79FFF30600028F1D1AF
:10398C000C2304463B602046F8BD4FF6FF73E381E1
:10399C0001236566A3812560A5606560256165616D
:1039AC00A5610822294604F15C0000F0A3F86563C8
:1039BC00A563A564E564E6E7204500082DE9F84316
:1039CC0080468946002600F1480414B93046BDE80B
:1039DC00F883A5686768013F01D52468F5E7AB89D2
:1039EC00012B07D9B5F90E30013303D029464046D7
:1039FC00C84706436835EEE738B50023064C054644
:103A0C0008461146236000F0D9FC431C02D1236800
:103A1C0003B12B6038BD00BF0002002070B50E460C
:103A2C00B1F90E1090B0002914461D4607DA002398
:103A3C002B60B3891A0610D44FF480630EE001AAF0
:103A4C0000F056FC0028F2DB029A02F47042A2F558
:103A5C0000535A425A412A60EEE74023002023606B
:103A6C0010B070BD8B8973B59D0706460C4607D503
:103A7C0004F14703236023610123636102B070BD2D
:103A8C0001AB6A46FFF7CAFF00990546304600F0C5
:103A9C0085F848B9B4F90C309A05EFD423F0030338
:103AAC0043F00203A381E3E70D4BB362A3892060CB
:103ABC0043F08003A381009B20616361019B5BB198
:103ACC00B4F90E10304600F025FC28B1A38923F080
:103ADC00030343F00103A381A3891D43A581CDE713
:103AEC0071380008024B0146186800F057B800BF47
:103AFC000C00002003460244934200D1704703F8A7
:103B0C00011BF9E738B50546002943D051F8043CB0
:103B1C000C1F002BB8BFE41800F02CFC1E4A1368D5
:103B2C00104633B9636014602846BDE8384000F095
:103B3C0022BCA3420BD921686218934201BF1A68B8
:103B4C005B685218226063600460EDE713465A68A4
:103B5C000AB1A242FAD919685818A0420BD12068B0
:103B6C000144581882421960DED110685268014431
:103B7C0019605A60D8E702D90C232B60D4E720686F
:103B8C0021188A4201BF11685268091821606260CD
:103B9C005C60C9E738BD00BF8C00002070B5CD1C3F
:103BAC0025F0030508350C2D38BF0C25002D0646D5
:103BBC0001DBA94203D90C233360002070BD00F057
:103BCC00D9FB234A1468214691B9224C23681BB9AE
:103BDC00304600F017FB20602946304600F012FBFF
:103BEC00431C26D10C233046336000F0C4FBE4E7C1
:103BFC000B685B1B1AD40B2B0FD90B60CC18CD5058
:103C0C00304600F0B8FB04F10B00231D20F0070038
:103C1C00C31A1BD05A42E25070BD8C420BBF636872
:103C2C004B681360636018BF0C46E9E70C464968A3
:103C3C00CAE7C41C24F00304A04205D0211A304664
:103C4C0000F0E0FA0130CDD02560D9E770BD00BF9F
:103C5C008C00002090000020936810B4013B002BD6
:103C6C00936008DA9469A34202DBCBB20A2B02D12F
:103C7C0010BCFFF785BC1368581C10601970C8B2D3
:103C8C0010BC7047F8B506460F461446D518AC4222
:103C9C0001D1002007E03A4614F8011B3046FFF72B
:103CAC00DBFF431CF3D1F8BD2DE9F04F9DB00C4662
:103CBC0017460393064618B183690BB9FFF712FE3A
:103CCC007C4B9C4257D17468A38918075DD5236936
:103CDC00002B5AD00023099320238DF82930302350
:103CEC004FF0010B8DF82A30B846454615F8013BCC
:103CFC00002B55D1B8EB070A0BD053463A46214658
:103D0C003046FFF7BFFF013000F0C480099B5344DD
:103D1C00099398F80030002B00F0BC8000234FF082
:103D2C00FF3204930793059206938DF853301A9340
:103D3C0005222978604800F00FFB05F10108049B6F
:103D4C00002831D1D90644BF20228DF853201A0700
:103D5C0044BF2B228DF853202A782A2A2CD00021FC
:103D6C000A20079AA84698F800300135303B092BF9
:103D7C006DD971B326E0514B9C4201D1B468A3E7D5
:103D8C004F4B9C4208BFF4689EE721463046FFF734
:103D9C0049FC00289ED04FF0FF301DB0BDE8F08FDD
:103DAC00252BA7D0A846A0E7434A4546801A0BFA14
:103DBC0000F018430490BBE7039A111D126803919D
:103DCC00002A01DB079204E0524243F002030792FF
:103DDC00049398F800302E2B10D198F8013008F18C
:103DEC0001012A2B37D1039B08F102081A1D1B680D
:103DFC000392002BB8BF4FF0FF330593314D0322D4
:103E0C0098F80010284600F0A7FA40B14023401B58
:103E1C0003FA00F0049B08F101080343049398F89B
:103E2C0000100622284808F101078DF8281000F030
:103E3C0093FA002834D0254B03BB039B073323F0A4
:103E4C00070308330393099B4B4409934CE700FB8E
:103E5C000232012186E700230A251846059388467D
:103E6C0098F800200131303A092A03D9002BC5D02B
:103E7C000590C3E705FB00200123F0E703AB00939B
:103E8C002246134B04A93046AFF30080B0F1FF3F3C
:103E9C008146D8D1A3895B063FF57DAF09987CE7B5
:103EAC0003AB009322460A4B04A9304600F08AF873
:103EBC00ECE700BFE044000824450008004500087A
:103ECC00C04400082A4500082E45000800000000E8
:103EDC00913C00082DE9F04791461F468A680B6912
:103EEC0006469342B8BF1346C9F8003091F84320F8
:103EFC000C46DDF8208012B10133C9F8003023687C
:103F0C00990642BFD9F800300233C9F80030256851
:103F1C0015F0060507D104F1190AE368D9F8002059
:103F2C009B1A9D422ADB94F843302268003318BF59
:103F3C00012392062FD404F1430239463046C04780
:103F4C00013022D02368E56803F00603042B18BF68
:103F5C000025D9F800204FF0000908BFAD1AA3685E
:103F6C00226908BF25EAE5759342C4BF9B1AED1878
:103F7C001A344D451BD10020BDE8F0870123524671
:103F8C0039463046C047013003D14FF0FF30BDE811
:103F9C00F0870135C1E73020E11881F843005A1C45
:103FAC0094F845102244023382F84310C3E70123EE
:103FBC00224639463046C0470130E6D009F10109A6
:103FCC00D7E700002DE9F04317460A7E85B06E2A2C
:103FDC00984606460C460C9B01F1430E00F0BC8043
:103FEC001AD8632A2ED00AD8002A00F0C880582A82
:103FFC0000F08A8004F1420584F842202AE0642A09
:10400C0001D0692AF6D121681A6811F0800F23D0EB
:10401C00111D1960136827E0732A00F0B48008D8CA
:10402C006F2A2AD0702AE5D10A6842F020020A6071
:10403C0003E0752A21D0782ADCD178226F4984F8E4
:10404C00452064E01A6801F14205111D19601368DE
:10405C0084F842300123A3E011F0400F02F1040177
:10406C001960D7D0B2F90030002B03DA2D225B4255
:10407C0084F8432062490A2217E02068196810F07E
:10408C00800F03D0081D18600B6806E010F0400F7D
:10409C0001F104001860F7D00B886F2A14BF0A22B4
:1040AC0008225749002084F843006568002DA5605C
:1040BC00C0F29C80206820F004002060002B3FD1CF
:1040CC00002D40F095807546082A0BD12368DA073D
:1040DC0008D5236962689A42DEBF302305F8013C9B
:1040EC0005F1FF35AEEB05032361CDF800803B46AF
:1040FC0003AA21463046FFF7EDFE013055D14FF0B3
:10410C00FF3005B0BDE8F08381F845203C492268BA
:10411C00186812F0800F00F104051D6001D00368CF
:10412C0002E05506FBD50388D00744BF42F02002BD
:10413C0022601BB9226822F0200222601022B1E713
:10414C007546B3FBF2F002FB1033CB5C05F8013D76
:10415C0003460028F5D1B7E708681A6810F0800FFD
:10416C00496904D0101D18601368196007E010F03D
:10417C00400F02F1040018601368F6D01980002378
:10418C0075462361B1E71A68111D19601568002185
:10419C006268284600F0E0F808B1401B6060636874
:1041AC002361002384F843309FE723692A4639466C
:1041BC003046C0470130A2D023689B0707D50025A5
:1041CC0004F11909E368039A9B1A9D4205DBE06828
:1041DC00039B9842B8BF184693E701234A463946D9
:1041EC003046C04701308AD00135EBE7002BA7D110
:1041FC000B7804F1420584F8423065E74645000827
:10420C003545000838B50023054C054608462360A3
:10421C0000F0F4F8431C02D1236803B12B6038BDC5
:10422C000002002010B50C46B1F90E1000F0A4F8F5
:10423C000028ABBF636DA3891B1823F48053ACBF5C
:10424C006365A38110BD2DE9F0411F468B8905469E
:10425C00DB050C46164605D502230022B1F90E10DB
:10426C0000F068F8A389324623F48053A381B4F993
:10427C000E103B462846BDE8F04100F017B810B5CB
:10428C000C46B1F90E1000F055F8431CA38915BF6C
:10429C00606523F4805343F48053A38118BFA3813A
:1042AC0010BDB1F90E1000F013B8000038B505467A
:1042BC00084611460022054C22601A46FFF710F8FA
:1042CC00431C02D1236803B12B6038BD00020020CF
:1042DC0038B50023054C05460846236000F05EF80F
:1042EC00431C02D1236803B12B6038BD00020020AF
:1042FC0038B50023064C054608461146236000F0ED
:10430C0055F8431C02D1236803B12B6038BD00BFA4
:10431C000002002038B50023054C054608462360F2
:10432C0000F054F8431C02D1236803B12B6038BD54
:10433C000002002038B50546084611460022054CFF
:10434C0022601A4600F04AF8431C02D1236803B1DC
:10435C002B6038BD0002002010B5C9B20244904257
:10436C00034601D1002010BD1C7801308C42F6D1DF
:10437C00184610BD7047704738B5054608461146BB
:10438C000022054C22601A4600F030F8431C02D182
:10439C00236803B12B6038BD000200205822024B69
:1043AC004FF0FF301A607047000200205822024B79
:1043BC004FF0FF301A607047000200205822024B69
:1043CC004FF0FF301A607047000200205822024B59
:1043DC0000201A60704700BF000200205822024BD8
:1043EC004FF0FF301A607047000200205822024B39
:1043FC004FF0FF301A60704700020020044B024659
:10440C00196809B903491960186802441A607047A1
:10441C009400002004020020F8B500BFF8BC08BCD2
:10442C009E467047F8B500BFF8BC08BC9E46704766
:10443C0002030405060708090A0B0C0D0E0F1010D9
:10444C00010200002E2E5C5372635C6164632E6368
:10445C000000000050726F6772616D207A6F737488
:10446C0061B32075727563686F6D696F6E792E0D0F
:10447C000000000025647C000D0000002E2E5C5313
:10448C0072635C6D61696E2E630000002E2E5C53AE
:10449C0072635C75736172742E630000000000001F
:1044AC0000000000010203040607080900000000D8
:1044BC0001020304000000000000000000000000E6
:1044CC0000000000000000000000000000000000E0
:1044DC0000000000000000000000000000000000D0
:1044EC0000000000000000000000000000000000C0
:1044FC0000000000000000000000000000000000B0
:10450C00000000000000000000000000000000009F
:10451C000000000010000020232D302B2000686CC0
:10452C004C006566674546470030313233343536CA
:10453C003738394142434445460030313233343503
:0C454C0036373839616263646566000030
:044558003101000825
:04455C000D01000845
:10456000100000000100000000A24A04100000201A
:1045700000000000E044000800450008C0440008B6
:10458000000000000000000000000000000000002B
:10459000000000000000000000000000000000001B
:1045A000000000000000000000000000000000000B
:1045B00000000000000000000000000000000000FB
:1045C00000000000000000000000000000000000EB
:0400000508003315A7
:00000001FF
